:020000040000FA
:100000000C94B2000C94DA000C94DA000C94DA0030
:100010000C94DA000C94DA000C94DA000C94DA00F8
:100020000C94DA000C94DA000C94DA000C94DA00E8
:100030000C94DA000C94DA000C94DA000C94DA00D8
:100040000C94AD020C94DA000C947B020C945502D3
:100050000C94DA000C94DA000C94DA000C94DA00B8
:100060000C94DA000C94DA0000407A10F35A00A0E5
:10007000724E18090010A5D4E80000E87648170071
:1000800000E40B54020000CA9A3B000000E1F505B1
:10009000000080969800000040420F000000A086FB
:1000A00001000000102700000000E803000000002D
:1000B0006400000000000A000000000001000000D1
:1000C00000002C76D888DC674F0823DFC1DFAE59EB
:1000D000E1B1B796E5E3E453C63AE651997696E87E
:1000E000E6C28426EB898C9B62ED407C6FFCEFBC02
:1000F0009C9F40F2BAA56FA5F490055A2AF75C932D
:100100006B6CF9676DC11BFCE0E40D47FEF520E662
:10011000B500D0ED902E0300943577050080841E45
:10012000080000204E0A000000C80C333333330FA0
:10013000986E12831141EF8D2114893BE65516CF3D
:10014000FEE6DB18D1844B381BF77C1D901DA4BB49
:10015000E424203284725E228100C9F124ECA1E5FE
:100160003D27F70211241FBECFEFD8E0DEBFCDBF81
:1001700011E0A0E0B1E0EAE6F4E102C005900D92E2
:10018000A231B107D9F721E0A2E1B1E001C01D928F
:10019000A23DB207E1F710E0C2EBD0E004C0219726
:1001A000FE010E941E0AC13BD107C9F70E94380315
:1001B0000C94330A0C940000AF92BF92CF92DF925E
:1001C000EF92FF920F931F93CF93DF936C017B010C
:1001D0008B01040F151FEB015E01AE18BF08C0179D
:1001E000D10759F06991D601ED91FC910190F08110
:1001F000E02DC6010995892B79F7C501DF91CF91D3
:100200001F910F91FF90EF90DF90CF90BF90AF9034
:100210000895FC01538D448D252F30E0842F90E00C
:10022000821B930B541710F0CF96089501970895F1
:10023000FC01918D828D981761F0A28DAE0FBF2FBA
:10024000B11D5D968C91928D9F5F9F73928F90E010
:1002500008958FEF9FEF0895FC01918D828D98177F
:1002600031F0828DE80FF11D858D90E008958FEFBC
:100270009FEF0895FC01918D228D892F90E0805C85
:100280009F4F821B91098F73992708958CE291E00B
:100290000E943A0121E0892B09F420E0822F089581
:1002A00080E090E0892B29F00E94460181110C9496
:1002B00000000895FC01A48DA80FB92FB11DA35A09
:1002C000BF4F2C91848D90E001968F739927848F76
:1002D000A689B7892C93A089B1898C918370806499
:1002E0008C93938D848D981306C00288F389E02D3A
:1002F00080818F7D80830895EF92FF920F931F93EB
:10030000CF93DF93EC0181E0888F9B8D8C8D9813C8
:100310001AC0E889F989808185FF15C09FB7F894D4
:10032000EE89FF896083E889F98980818370806420
:1003300080839FBF81E090E0DF91CF911F910F916B
:10034000FF90EF900895F62E0B8D10E00F5F1F4F7A
:100350000F731127E02E8C8D8E110CC00FB607FC89
:10036000FACFE889F989808185FFF5CFCE010E9417
:100370005A01F1CFEB8DEC0FFD2FF11DE35AFF4F2A
:10038000F0829FB7F8940B8FEA89FB8980818062A5
:10039000CFCFCF93DF93EC01888D8823B9F0AA8962
:1003A000BB89E889F9898C9185FD03C0808186FD30
:1003B0000DC00FB607FCF7CF8C9185FFF2CF80817F
:1003C00085FFEDCFCE010E945A01E9CFDF91CF9199
:1003D00008958E3008F08E508770806480937C0082
:1003E00080917A00806480937A0080917A0086FD03
:1003F000FCCF809178009091790008953FB7F894F0
:100400008091130190911401A0911501B0911601F2
:1004100026B5A89B05C02F3F19F00196A11DB11D5F
:100420003FBFBA2FA92F982F8827BC01CD01620F9B
:10043000711D811D911D42E0660F771F881F991F56
:100440004A95D1F708958F929F92AF92BF92CF9223
:10045000DF92EF92FF924B015C010E94FE016B0163
:100460007C010E94FE016C197D098E099F09683E7E
:10047000734081059105A8F321E0821A9108A10833
:10048000B10888EEC80E83E0D81EE11CF11C81146F
:100490009104A104B10429F7FF90EF90DF90CF9071
:1004A000BF90AF909F908F9008951F920F920FB6BC
:1004B0000F9211242F933F934F935F936F937F93EA
:1004C0008F939F93AF93BF93EF93FF938CE291E051
:1004D0000E945A01FF91EF91BF91AF919F918F912F
:1004E0007F916F915F914F913F912F910F900FBE30
:1004F0000F901F9018951F920F920FB60F92112414
:100500002F938F939F93EF93FF93E0913C01F09192
:100510003D018081E0914201F091430182FD1BC0C9
:100520009081809145018F5F8F73209146018217E2
:1005300041F0E0914501F0E0E45DFE4F958F80933E
:100540004501FF91EF919F918F912F910F900FBED9
:100550000F901F9018958081F4CF1F920F920FB6C5
:100560000F9211242F933F938F939F93AF93BF9339
:100570008091170190911801A0911901B0911A0171
:100580003091120123E0230F2D3758F50196A11D5C
:10059000B11D209312018093170190931801A0932D
:1005A0001901B0931A018091130190911401A09147
:1005B0001501B09116010196A11DB11D8093130183
:1005C00090931401A0931501B0931601BF91AF91C0
:1005D0009F918F913F912F910F900FBE0F901F9081
:1005E000189526E8230F0296A11DB11DD2CFECE28B
:1005F000F1E01382128288EE93E0A0E0B0E0848301
:100600009583A683B78384E091E09183808385EC12
:1006100090E09587848784EC90E09787868780ECCC
:1006200090E0918B808B81EC90E0938B828B82ECBD
:1006300090E0958B848B86EC90E0978B868B118E67
:10064000128E138E148EE9ECF1E080E090E0A0E0D1
:10065000B4E480839183A283B38382E09BE2A7E822
:10066000BDE384839583A683B7838EE08087089556
:10067000CF93DF9300D000D0CDB7DEB7789484B5A8
:10068000826084BD84B5816084BD85B5826085BD8E
:1006900085B5816085BD80916E00816080936E001C
:1006A000109281008091810082608093810080910E
:1006B00081008160809381008091800081608093BF
:1006C00080008091B10084608093B1008091B0007F
:1006D00081608093B00080917A00846080937A007A
:1006E00080917A00826080937A0080917A008160A4
:1006F00080937A0080917A00806880937A001092CB
:10070000C100E0913C01F0913D0182E08083E091E5
:100710003801F09139011082E0913A01F0913B01EA
:1007200080E1808310924401E0914001F091410109
:1007300086E08083E0913E01F0913F0180818061FD
:100740008083E0913E01F0913F0180818860808349
:10075000E0913E01F0913F01808180688083E091CB
:100760003E01F0913F0180818F7D808304E110E0A4
:100770001A8219828091D1010E94E90129813A816E
:10078000280F391F3A83298361E070E080E090E010
:100790000E9423020150110969F789819A8164E15D
:1007A00070E00E94C909072E000C880B990B0E946B
:1007B00065086093C9017093CA018093CB0190933F
:1007C000CC010E94FE012B013C01C12CD12C7601F1
:1007D000812C912C54010E94FE016419750986092F
:1007E000970960327E448105910570F58091C901B9
:1007F0009091CA01A091CB01B091CC0189839A83D9
:10080000AB83BC838091D1010E94E901BC01990FA7
:10081000880B990B0E9465089B01AC0169817A8164
:100820008B819C810E944E070E942D089B01AC0188
:100830000E94B909860E971EA81EB91E9FEFC91AFD
:10084000D90AE90AF90AC7CFC501B401A70196017F
:100850000E94DD09CA01B9010E9463080E9464096F
:1008600020E030EC4FE754E40E94BB0720E030E08A
:1008700040EA50E40E94F1082091CD013091CE0170
:100880004091CF015091D0010E94BB0720E030E0A1
:1008900046E653E40E94F1086B017C018091280137
:1008A00090912901A0912A01B0912B0180932401FC
:1008B00090932501A0932601B09327012FB7F894B8
:1008C0008091170190911801A0911901B0911A011E
:1008D0002FBF8093280190932901A0932A01B09300
:1008E0002B010091240110912501209126013091C6
:1008F0002701BC01CD01601B710B820B930B0E9481
:10090000630820E03AEB4BE55AE40E94BB07A701DD
:1009100096010E94F108209120013091210140911F
:100920002201509123010E944F0760932001709390
:10093000210180932201909323010BE111E022E039
:1009400044E00E94C204D8010D900020E9F7AD01F7
:100950004C515140B8018CE291E00E94DC0060E112
:1009600077E280E090E00E942302E0E0F0E0EF2BED
:1009700009F427CF0E944601882309F422CF0E9460
:1009800000001FCFEF920F931F93CF93DF93E801E7
:1009900034E047FD34E1042E000C550B57FF03C033
:1009A000519541955109E32E022F242FAE010E944B
:1009B000E004CE01DF91CF911F910F91EF90089548
:1009C000A9E0B0E0E6EEF4E00C941D076A01F22E17
:1009D000B02E102FFBE3AF2EA01608F41BE31F5F11
:1009E000012F27E0AE014F5F5F4F0E943F06BC0121
:1009F0008981982F9970913009F43FC09BE2E1FC06
:100A000004C09E2D9170E0FC3AC05E2D5071E82F1D
:100A1000E87083FF46C084E0911101C083E0EF2DB0
:100A2000E81B8F1508F0E0E0D6018E2F20E2552359
:100A300051F1992329F0D6019C93C60101966C01CE
:100A400096012D5F3F4FE2FE24C08EE4D6018C93C9
:100A500091E411969C93119712968C93D9018E2F45
:100A600090E281111BC0E20FF32FF11D10828EEF77
:100A70009FEF2996ECE00C9439079DE2C6CF90E2F7
:100A8000C4CF2D9381508111FCCFCE0ED11CE0E05C
:100A9000D0CF8EE6D6018C9391E6DBCF9D9381502B
:100AA000E0CF482F447082FF3DC084E0911101C027
:100AB00083E08F1510F4EF2DE81BD6018E2F20E276
:100AC000552309F1992329F0D6019C93C60101967B
:100AD0006C0196012D5F3F4FE2FE1BC089E4D601F9
:100AE0008C938EE411968C93119786E412968C93D6
:100AF000D9018E2F90E2882309F4B5CF9D938150C0
:100B0000FACF2D9381508111FCCFCE0ED11CE0E0A5
:100B1000D9CF89E6D6018C938EE611968C931197E6
:100B200086E6E4CF9B0177FF02C030E020E0A1E041
:100B3000B0E0911102C0B0E0A0E0F9013196AE0F33
:100B4000BF1F8B2C912CBB2009F461C05401EFEF27
:100B5000AE1ABE0AAA0DBB1DFA161B0619F014F038
:100B60004F2D4A1B511188C0E3FC59C07601A42FB8
:100B7000B0E2A1114FC0C40ED11C992309F45BC08F
:100B800040E0D6011196F60190836D01552309F4DA
:100B900048C0012F060F9A81582F507184FF03C05F
:100BA000913309F4015010160CF047C0093008F0D9
:100BB00008E0EEE2FE2E5B01A01AB10885019194D7
:100BC000819491082F3F320729F4D601FC92F60157
:100BD00031966F016217730794F1021713077CF5C2
:100BE000DB01A21BB30BAA24A394B12CAC0EBD1E37
:100BF000AA0DBB1D11968C9121503109D601119679
:100C000028153905F4F0F60180836D01DBCFB12C96
:100C1000A12CA0CFF701B1937F01A150AACF9111D0
:100C2000B0CFD601942F50E302C05D939150911143
:100C3000FCCFC40ED11C40E0ACCF01E0BACF80E3C2
:100C4000DBCF6217730731F4963388F4953311F4D0
:100C5000552369F0F6018083FD01842F90E2811114
:100C600008C0A40FB11D1C9290E080E002CF81E388
:100C7000F1CF91938150F3CF911183CF8ACF283058
:100C800008F027E03327DA01990F311D87FD9160C5
:100C900000966105710539F432602E5F3D9330E3B3
:100CA0002A95E1F708959F3F30F08038710561057E
:100CB00009F03C5F3C5F3D93913008F08068911DE6
:100CC000DF93CF931F930F93FF92EF92192F987F8B
:100CD0009695E92F96959695E90FFF27EE53FF4FCE
:100CE00099273327EE24FF24A701E70105900894F4
:100CF000079428F4360FE71EF81E491F511D660F92
:100D0000771F881F991F0694A1F70590079428F470
:100D1000E70EF81E491F561FC11D770F881F991F28
:100D2000661F0694A1F70590079428F4F80E491F52
:100D3000561FC71FD11D880F991F661F771F069466
:100D4000A1F70590079420F4490F561FC71FD81F1D
:100D5000990F661F771F881F0694A9F78491109535
:100D6000177041F0D695C79557954795F794E79436
:100D70001A95C1F7E8E6F0E0689415901591359161
:100D80006591959105907FE27395E118F10A430B07
:100D9000560BC90BD009C0F7E10CF11E431F561FBB
:100DA000C91FD01D7EF4703311F48A95E6CFE89404
:100DB000015030F0080F0AF40027021708F4202F22
:100DC0002395022F7A3328F079E37D932A95E9F76A
:100DD00010C07D932A9589F6069497956795379567
:100DE00017951794E118F10A430B560BC90BD0095C
:100DF00098F023957E9173957A3308F070E37C9395
:100E00002013B8F77E9170617D9330F0839571E384
:100E10007D9370E32A95E1F71124EF90FF900F91F5
:100E20001F91CF91DF91992787FD909508952F927B
:100E30003F924F925F926F927F928F929F92AF926A
:100E4000BF92CF92DF92EF92FF920F931F93CF93B7
:100E5000DF93CDB7DEB7CA1BDB0B0FB6F894DEBF4E
:100E60000FBECDBF09942A88398848885F846E8474
:100E70007D848C849B84AA84B984C884DF80EE80BE
:100E8000FD800C811B81AA81B981CE0FD11D0FB6C7
:100E9000F894DEBF0FBECDBFED0108955058BB27BB
:100EA000AA270E9466070C94B7080E94A90838F088
:100EB0000E94B00820F039F49F3F19F426F40C94F6
:100EC000A6080EF4E095E7FB0C94A008E92F0E9419
:100ED000C80858F3BA17620773078407950720F00C
:100EE00079F4A6F50C94EA080EF4E0950B2EBA2FCF
:100EF000A02D0B01B90190010C01CA01A001112420
:100F0000FF27591B99F0593F50F4503E68F11A16CB
:100F1000F040A22F232F342F4427585FF3CF46955C
:100F200037952795A795F0405395C9F77EF41F167E
:100F3000BA0B620B730B840BBAF09150A1F0FF0F48
:100F4000BB1F661F771F881FC2F70EC0BA0F621F34
:100F5000731F841F48F4879577956795B795F79524
:100F60009E3F08F0B0CF9395880F08F09927EE0FB9
:100F70009795879508950E94CF070C94B7080E9413
:100F8000B00858F00E94A90840F029F45F3F29F00A
:100F90000C94A00851110C94EB080C94A6080E9424
:100FA000C80868F39923B1F3552391F3951B550BAA
:100FB000BB27AA2762177307840738F09F5F5F4F2C
:100FC000220F331F441FAA1FA9F335D00E2E3AF06B
:100FD000E0E832D091505040E695001CCAF72BD083
:100FE000FE2F29D0660F771F881FBB1F26173707D4
:100FF0004807AB07B0E809F0BB0B802DBF01FF2706
:1010000093585F4F3AF09E3F510578F00C94A0083A
:101010000C94EB085F3FE4F3983ED4F38695779504
:101020006795B795F7959F5FC9F7880F911D9695BE
:10103000879597F90895E1E0660F771F881FBB1F1A
:10104000621773078407BA0720F0621B730B840BC7
:10105000BA0BEE1F88F7E09508950E943408689453
:10106000B1110C94EB0808950E94D00888F09F57A6
:1010700098F0B92F9927B751B0F0E1F0660F771FBC
:10108000881F991F1AF0BA95C9F714C0B13091F0B2
:101090000E94EA08B1E008950C94EA08672F782FBF
:1010A0008827B85F39F0B93FCCF386957795679577
:1010B000B395D9F73EF490958095709561957F4FE3
:1010C0008F4F9F4F0895E89409C097FB3EF4909589
:1010D0008095709561957F4F8F4F9F4F9923A9F011
:1010E000F92F96E9BB279395F695879577956795A0
:1010F000B795F111F8CFFAF4BB0F11F460FF1BC0E4
:101100006F5F7F4F8F4F9F4F16C0882311F096E976
:1011100011C0772321F09EE8872F762F05C0662324
:1011200071F096E8862F70E060E02AF09A95660FDD
:10113000771F881FDAF7880F9695879597F9089596
:1011400097F99F6780E870E060E008959FEF80EC7A
:10115000089500240A94161617061806090608951D
:1011600000240A9412161306140605060895092E83
:101170000394000C11F4882352F0BB0F40F4BF2BF2
:1011800011F460FF04C06F5F7F4F8F4F9F4F089532
:1011900057FD9058440F551F59F05F3F71F0479528
:1011A000880F97FB991F61F09F3F79F0879508950D
:1011B000121613061406551FF2CF4695F1DF08C02C
:1011C000161617061806991FF1CF86957105610549
:1011D00008940895E894BB2766277727CB0197F9F1
:1011E00008950E9404090C94B7080E94A90838F0D9
:1011F0000E94B00820F0952311F00C94A0080C94E4
:10120000A60811240C94EB080E94C80870F3959F5F
:10121000C1F3950F50E0551F629FF001729FBB27ED
:10122000F00DB11D639FAA27F00DB11DAA1F649F89
:101230006627B00DA11D661F829F2227B00DA11D3C
:10124000621F739FB00DA11D621F839FA00D611DC2
:10125000221F749F3327A00D611D231F849F600DE3
:10126000211D822F762F6A2F11249F5750409AF00C
:10127000F1F088234AF0EE0FFF1FBB1F661F771F98
:10128000881F91505040A9F79E3F510580F00C9463
:10129000A0080C94EB085F3FE4F3983ED4F38695E6
:1012A00077956795B795F795E7959F5FC1F7FE2B03
:1012B000880F911D9695879597F9089519F416F45E
:1012C0000C94A6080C94A4090E94D008B8F39923A2
:1012D000C9F3B6F39F57550B87FF0E94B20900244C
:1012E000A0E640EA900180585695979528F4805CD6
:1012F000660F771F881F20F026173707480730F43E
:10130000621B730B840B202931294A2BA695179455
:101310000794202531254A2758F7660F771F881F25
:1013200020F026173707480730F4620B730B840B45
:10133000200D311D411DA09581F7B901842F9158D1
:10134000880F9695879508959F3F31F0915020F42E
:10135000879577956795B795880F911D9695879591
:1013600097F9089591505040660F771F881FD2F764
:101370000895DB018F939F930E94FF09BF91AF9166
:10138000A29F800D911DA39F900DB29F900D1124DF
:10139000089597FB072E16F4009407D077FD09D027
:1013A0000E940A0A07FC05D03EF4909581959F4F54
:1013B0000895709561957F4F0895A1E21A2EAA1B9A
:1013C000BB1BFD010DC0AA1FBB1FEE1FFF1FA217F5
:1013D000B307E407F50720F0A21BB30BE40BF50BF2
:1013E000661F771F881F991F1A9469F7609570957B
:1013F000809590959B01AC01BD01CF0108950E949D
:10140000240AA59F900DB49F900DA49F800D911D5F
:1014100011240895AA1BBB1B51E107C0AA1FBB1FC3
:10142000A617B70710F0A61BB70B881F991F5A9570
:10143000A9F780959095BC01CD010895EE0FFF1F8F
:101440000590F491E02D0994A29FB001B39FC001D3
:10145000A39F700D811D1124911DB29F700D811DE0
:101460001124911D0895F894FFCF000000007C0125
:0C147000DC000901C9013A0118012C013F
:107E0000112484B714BE81FFF0D085E080938100F7
:107E100082E08093C00088E18093C10086E0809377
:107E2000C20080E18093C4008EE0C9D0259A86E02C
:107E300020E33CEF91E0309385002093840096BBD3
:107E4000B09BFECF1D9AA8958150A9F7CC24DD24C4
:107E500088248394B5E0AB2EA1E19A2EF3E0BF2EE7
:107E6000A2D0813461F49FD0082FAFD0023811F036
:107E7000013811F484E001C083E08DD089C08234E0
:107E800011F484E103C0853419F485E0A6D080C0E4
:107E9000853579F488D0E82EFF2485D0082F10E0AE
:107EA000102F00270E291F29000F111F8ED06801E7
:107EB0006FC0863521F484E090D080E0DECF843638
:107EC00009F040C070D06FD0082F6DD080E0C81688
:107ED00080E7D80618F4F601B7BEE895C0E0D1E017
:107EE00062D089930C17E1F7F0E0CF16F0E7DF06D8
:107EF00018F0F601B7BEE89568D007B600FCFDCFD4
:107F0000A601A0E0B1E02C9130E011968C91119780
:107F100090E0982F8827822B932B1296FA010C0160
:107F200087BEE89511244E5F5F4FF1E0A038BF0790
:107F300051F7F601A7BEE89507B600FCFDCF97BE46
:107F4000E89526C08437B1F42ED02DD0F82E2BD052
:107F50003CD0F601EF2C8F010F5F1F4F84911BD097
:107F6000EA94F801C1F70894C11CD11CFA94CF0C13
:107F7000D11C0EC0853739F428D08EE10CD085E9AC
:107F80000AD08FE07ACF813511F488E018D01DD067
:107F900080E101D065CF982F8091C00085FFFCCF94
:107FA0009093C60008958091C00087FFFCCF809118
:107FB000C00084FD01C0A8958091C6000895E0E648
:107FC000F0E098E1908380830895EDDF803219F02E
:107FD00088E0F5DFFFCF84E1DECF1F93182FE3DFCA
:107FE0001150E9F7F2DF1F91089580E0E8DFEE27F6
:047FF000FF270994CA
:027FFE00040479
:00000001FF
